{
  "_format": "hh-sol-artifact-1",
  "contractName": "Guestbook",
  "sourceName": "contracts/Guestbook.sol",
  "abi": [
    {
      "inputs": [],
      "stateMutability": "payable",
      "type": "constructor"
    },
    {
      "anonymous": false,
      "inputs": [
        {
          "indexed": true,
          "internalType": "address",
          "name": "from",
          "type": "address"
        },
        {
          "indexed": false,
          "internalType": "uint256",
          "name": "timestamp",
          "type": "uint256"
        },
        {
          "indexed": false,
          "internalType": "string",
          "name": "message",
          "type": "string"
        }
      ],
      "name": "SignGuestbook",
      "type": "event"
    },
    {
      "inputs": [],
      "name": "getAllSigns",
      "outputs": [
        {
          "components": [
            {
              "internalType": "address",
              "name": "signer",
              "type": "address"
            },
            {
              "internalType": "string",
              "name": "message",
              "type": "string"
            },
            {
              "internalType": "uint256",
              "name": "timestamp",
              "type": "uint256"
            }
          ],
          "internalType": "struct Guestbook.Sign[]",
          "name": "",
          "type": "tuple[]"
        }
      ],
      "stateMutability": "view",
      "type": "function"
    },
    {
      "inputs": [],
      "name": "getTotalSignCount",
      "outputs": [
        {
          "internalType": "uint256",
          "name": "",
          "type": "uint256"
        }
      ],
      "stateMutability": "view",
      "type": "function"
    },
    {
      "inputs": [
        {
          "internalType": "address",
          "name": "",
          "type": "address"
        }
      ],
      "name": "lastSignedAt",
      "outputs": [
        {
          "internalType": "uint256",
          "name": "",
          "type": "uint256"
        }
      ],
      "stateMutability": "view",
      "type": "function"
    },
    {
      "inputs": [
        {
          "internalType": "string",
          "name": "_message",
          "type": "string"
        }
      ],
      "name": "sign",
      "outputs": [],
      "stateMutability": "nonpayable",
      "type": "function"
    }
  ],
  "bytecode": "0x60806040526200004f6040518060400160405280601b81526020017f496e697469616c697a696e6720746865206775657374626f6f6b2100000000008152506200007760201b620005b81760201c565b606444426200005f9190620001c4565b6200006b919062000261565b60018190555062000308565b62000117816040516024016200008e919062000184565b6040516020818303038152906040527f41304fac000000000000000000000000000000000000000000000000000000007bffffffffffffffffffffffffffffffffffffffffffffffffffffffff19166020820180517bffffffffffffffffffffffffffffffffffffffffffffffffffffffff83818316178352505050506200011a60201b60201c565b50565b60008151905060006a636f6e736f6c652e6c6f679050602083016000808483855afa5050505050565b60006200015082620001a8565b6200015c8185620001b3565b93506200016e8185602086016200022b565b6200017981620002f7565b840191505092915050565b60006020820190508181036000830152620001a0818462000143565b905092915050565b600081519050919050565b600082825260208201905092915050565b6000620001d18262000221565b9150620001de8362000221565b9250827fffffffffffffffffffffffffffffffffffffffffffffffffffffffffffffffff0382111562000216576200021562000299565b5b828201905092915050565b6000819050919050565b60005b838110156200024b5780820151818401526020810190506200022e565b838111156200025b576000848401525b50505050565b60006200026e8262000221565b91506200027b8362000221565b9250826200028e576200028d620002c8565b5b828206905092915050565b7f4e487b7100000000000000000000000000000000000000000000000000000000600052601160045260246000fd5b7f4e487b7100000000000000000000000000000000000000000000000000000000600052601260045260246000fd5b6000601f19601f8301169050919050565b61102080620003186000396000f3fe608060405234801561001057600080fd5b506004361061004c5760003560e01c8063205e37fe1461005157806379d6348d1461006f578063865908781461008b578063f11bf557146100a9575b600080fd5b6100596100d9565b6040516100669190610ac8565b60405180910390f35b6100896004803603810190610084919061085f565b61022a565b005b610093610597565b6040516100a09190610b9c565b60405180910390f35b6100c360048036038101906100be9190610836565b6105a0565b6040516100d09190610b9c565b60405180910390f35b60606002805480602002602001604051908101604052809291908181526020016000905b8282101561022157838290600052602060002090600302016040518060600160405290816000820160009054906101000a900473ffffffffffffffffffffffffffffffffffffffff1673ffffffffffffffffffffffffffffffffffffffff1673ffffffffffffffffffffffffffffffffffffffff16815260200160018201805461018690610d82565b80601f01602080910402602001604051908101604052809291908181526020018280546101b290610d82565b80156101ff5780601f106101d4576101008083540402835291602001916101ff565b820191906000526020600020905b8154815290600101906020018083116101e257829003601f168201915b50505050508152602001600282015481525050815260200190600101906100fd565b50505050905090565b42601e600360003373ffffffffffffffffffffffffffffffffffffffff1673ffffffffffffffffffffffffffffffffffffffff168152602001908152602001600020546102779190610cae565b106102b7576040517f08c379a00000000000000000000000000000000000000000000000000000000081526004016102ae90610b3c565b60405180910390fd5b42600360003373ffffffffffffffffffffffffffffffffffffffff1673ffffffffffffffffffffffffffffffffffffffff16815260200190815260200160002081905550600160008082825461030d9190610cae565b92505081905550600260405180606001604052803373ffffffffffffffffffffffffffffffffffffffff16815260200183815260200142815250908060018154018082558091505060019003906000526020600020906003020160009091909190915060008201518160000160006101000a81548173ffffffffffffffffffffffffffffffffffffffff021916908373ffffffffffffffffffffffffffffffffffffffff16021790555060208201518160010190805190602001906103d3929190610716565b506040820151816002015550503373ffffffffffffffffffffffffffffffffffffffff167ff94a69fd363020aaf70a2307261ae0adbb2960b088ebd0b952fdc69b8e23969b4283604051610428929190610bb7565b60405180910390a26064444261043e9190610cae565b6104489190610de5565b600181905550603260015411610594576104976040518060400160405280600781526020017f257320776f6e210000000000000000000000000000000000000000000000000081525033610651565b6000655af3107a40009050478111156104e5576040517f08c379a00000000000000000000000000000000000000000000000000000000081526004016104dc90610b5c565b60405180910390fd5b60003373ffffffffffffffffffffffffffffffffffffffff168260405161050b90610ab3565b60006040518083038185875af1925050503d8060008114610548576040519150601f19603f3d011682016040523d82523d6000602084013e61054d565b606091505b5050905080610591576040517f08c379a000000000000000000000000000000000000000000000000000000000815260040161058890610b7c565b60405180910390fd5b50505b50565b60008054905090565b60036020528060005260406000206000915090505481565b61064e816040516024016105cc9190610aea565b6040516020818303038152906040527f41304fac000000000000000000000000000000000000000000000000000000007bffffffffffffffffffffffffffffffffffffffffffffffffffffffff19166020820180517bffffffffffffffffffffffffffffffffffffffffffffffffffffffff83818316178352505050506106ed565b50565b6106e98282604051602401610667929190610b0c565b6040516020818303038152906040527f319af333000000000000000000000000000000000000000000000000000000007bffffffffffffffffffffffffffffffffffffffffffffffffffffffff19166020820180517bffffffffffffffffffffffffffffffffffffffffffffffffffffffff83818316178352505050506106ed565b5050565b60008151905060006a636f6e736f6c652e6c6f679050602083016000808483855afa5050505050565b82805461072290610d82565b90600052602060002090601f016020900481019282610744576000855561078b565b82601f1061075d57805160ff191683800117855561078b565b8280016001018555821561078b579182015b8281111561078a57825182559160200191906001019061076f565b5b509050610798919061079c565b5090565b5b808211156107b557600081600090555060010161079d565b5090565b60006107cc6107c784610c0c565b610be7565b9050828152602081018484840111156107e457600080fd5b6107ef848285610d40565b509392505050565b60008135905061080681610fd3565b92915050565b600082601f83011261081d57600080fd5b813561082d8482602086016107b9565b91505092915050565b60006020828403121561084857600080fd5b6000610856848285016107f7565b91505092915050565b60006020828403121561087157600080fd5b600082013567ffffffffffffffff81111561088b57600080fd5b6108978482850161080c565b91505092915050565b60006108ac8383610a45565b905092915050565b6108bd81610d04565b82525050565b6108cc81610d04565b82525050565b60006108dd82610c4d565b6108e78185610c70565b9350836020820285016108f985610c3d565b8060005b85811015610935578484038952815161091685826108a0565b945061092183610c63565b925060208a019950506001810190506108fd565b50829750879550505050505092915050565b600061095282610c58565b61095c8185610c8c565b935061096c818560208601610d4f565b61097581610ed2565b840191505092915050565b600061098b82610c58565b6109958185610c9d565b93506109a5818560208601610d4f565b6109ae81610ed2565b840191505092915050565b60006109c6603683610c9d565b91506109d182610ee3565b604082019050919050565b60006109e9602383610c9d565b91506109f482610f32565b604082019050919050565b6000610a0c602683610c9d565b9150610a1782610f81565b604082019050919050565b6000610a2f600083610c81565b9150610a3a82610fd0565b600082019050919050565b6000606083016000830151610a5d60008601826108b4565b5060208301518482036020860152610a758282610947565b9150506040830151610a8a6040860182610a95565b508091505092915050565b610a9e81610d36565b82525050565b610aad81610d36565b82525050565b6000610abe82610a22565b9150819050919050565b60006020820190508181036000830152610ae281846108d2565b905092915050565b60006020820190508181036000830152610b048184610980565b905092915050565b60006040820190508181036000830152610b268185610980565b9050610b3560208301846108c3565b9392505050565b60006020820190508181036000830152610b55816109b9565b9050919050565b60006020820190508181036000830152610b75816109dc565b9050919050565b60006020820190508181036000830152610b95816109ff565b9050919050565b6000602082019050610bb16000830184610aa4565b92915050565b6000604082019050610bcc6000830185610aa4565b8181036020830152610bde8184610980565b90509392505050565b6000610bf1610c02565b9050610bfd8282610db4565b919050565b6000604051905090565b600067ffffffffffffffff821115610c2757610c26610ea3565b5b610c3082610ed2565b9050602081019050919050565b6000819050602082019050919050565b600081519050919050565b600081519050919050565b6000602082019050919050565b600082825260208201905092915050565b600081905092915050565b600082825260208201905092915050565b600082825260208201905092915050565b6000610cb982610d36565b9150610cc483610d36565b9250827fffffffffffffffffffffffffffffffffffffffffffffffffffffffffffffffff03821115610cf957610cf8610e16565b5b828201905092915050565b6000610d0f82610d16565b9050919050565b600073ffffffffffffffffffffffffffffffffffffffff82169050919050565b6000819050919050565b82818337600083830152505050565b60005b83811015610d6d578082015181840152602081019050610d52565b83811115610d7c576000848401525b50505050565b60006002820490506001821680610d9a57607f821691505b60208210811415610dae57610dad610e74565b5b50919050565b610dbd82610ed2565b810181811067ffffffffffffffff82111715610ddc57610ddb610ea3565b5b80604052505050565b6000610df082610d36565b9150610dfb83610d36565b925082610e0b57610e0a610e45565b5b828206905092915050565b7f4e487b7100000000000000000000000000000000000000000000000000000000600052601160045260246000fd5b7f4e487b7100000000000000000000000000000000000000000000000000000000600052601260045260246000fd5b7f4e487b7100000000000000000000000000000000000000000000000000000000600052602260045260246000fd5b7f4e487b7100000000000000000000000000000000000000000000000000000000600052604160045260246000fd5b6000601f19601f8301169050919050565b7f596f752063616e206f6e6c79207369676e20746865206775657374626f6f6b2060008201527f6f6e6365206576657279203330207365636f6e64732100000000000000000000602082015250565b7f436f6e747261637420646f65736e2774206861766520656e6f7567682066756e60008201527f6473210000000000000000000000000000000000000000000000000000000000602082015250565b7f4661696c656420746f207769746864726177206d6f6e65792066726f6d20636f60008201527f6e74726163740000000000000000000000000000000000000000000000000000602082015250565b50565b610fdc81610d04565b8114610fe757600080fd5b5056fea26469706673582212202cdabc918acdc6785a30fc94c8bcc49978dbc04f8552266df6ee88ae95b26fe864736f6c63430008040033",
  "linkReferences": {},
  "deployedLinkReferences": {}
}